{"abi":[{"type":"constructor","inputs":[{"name":"_wflr","type":"address","internalType":"address"},{"name":"_contractRegistry","type":"address","internalType":"address"},{"name":"_governance","type":"address","internalType":"address"}],"stateMutability":"nonpayable"},{"type":"receive","stateMutability":"payable"},{"type":"function","name":"PRECISION","inputs":[],"outputs":[{"name":"","type":"uint256","internalType":"uint256"}],"stateMutability":"view"},{"type":"function","name":"accRewardPerShare","inputs":[{"name":"","type":"bytes32","internalType":"bytes32"}],"outputs":[{"name":"","type":"uint256","internalType":"uint256"}],"stateMutability":"view"},{"type":"function","name":"acceptGovernance","inputs":[],"outputs":[],"stateMutability":"nonpayable"},{"type":"function","name":"addPool","inputs":[{"name":"_lbPair","type":"address","internalType":"address"},{"name":"_delegatedPair","type":"address","internalType":"address"}],"outputs":[],"stateMutability":"nonpayable"},{"type":"function","name":"binTotalSupplySnapshot","inputs":[{"name":"","type":"bytes32","internalType":"bytes32"},{"name":"","type":"uint24","internalType":"uint24"}],"outputs":[{"name":"","type":"uint256","internalType":"uint256"}],"stateMutability":"view"},{"type":"function","name":"claimAllRewards","inputs":[{"name":"_lbPair","type":"address","internalType":"address"}],"outputs":[{"name":"totalRewards","type":"uint256","internalType":"uint256"}],"stateMutability":"nonpayable"},{"type":"function","name":"claimFTSORewards","inputs":[{"name":"_lbPair","type":"address","internalType":"address"},{"name":"_rewardEpochs","type":"uint256[]","internalType":"uint256[]"}],"outputs":[{"name":"rewardAmount","type":"uint256","internalType":"uint256"}],"stateMutability":"nonpayable"},{"type":"function","name":"claimFlareDrop","inputs":[{"name":"_lbPair","type":"address","internalType":"address"},{"name":"_month","type":"uint256","internalType":"uint256"}],"outputs":[{"name":"rewardAmount","type":"uint256","internalType":"uint256"}],"stateMutability":"nonpayable"},{"type":"function","name":"claimUserRewards","inputs":[{"name":"_lbPair","type":"address","internalType":"address"}],"outputs":[{"name":"reward","type":"uint256","internalType":"uint256"}],"stateMutability":"nonpayable"},{"type":"function","name":"contractRegistry","inputs":[],"outputs":[{"name":"","type":"address","internalType":"contract IFlareContractRegistry"}],"stateMutability":"view"},{"type":"function","name":"distributionToDelegators","inputs":[],"outputs":[{"name":"","type":"address","internalType":"address"}],"stateMutability":"view"},{"type":"function","name":"ftsoRewardManager","inputs":[],"outputs":[{"name":"","type":"address","internalType":"address"}],"stateMutability":"view"},{"type":"function","name":"getActivePools","inputs":[],"outputs":[{"name":"activePools","type":"address[]","internalType":"address[]"}],"stateMutability":"view"},{"type":"function","name":"getClaimableFTSOInfo","inputs":[],"outputs":[{"name":"startEpoch","type":"uint256","internalType":"uint256"},{"name":"endEpoch","type":"uint256","internalType":"uint256"},{"name":"currentEpoch","type":"uint256","internalType":"uint256"}],"stateMutability":"view"},{"type":"function","name":"getClaimableFlareDropInfo","inputs":[],"outputs":[{"name":"currentMonth","type":"uint256","internalType":"uint256"},{"name":"monthToExpireNext","type":"uint256","internalType":"uint256"},{"name":"secondsUntilNext","type":"uint256","internalType":"uint256"}],"stateMutability":"view"},{"type":"function","name":"getPoolInfo","inputs":[{"name":"_lbPair","type":"address","internalType":"address"}],"outputs":[{"name":"","type":"tuple","internalType":"struct FlareRewardsDistributor.PoolInfo","components":[{"name":"lbPair","type":"address","internalType":"address"},{"name":"delegatedPair","type":"address","internalType":"address"},{"name":"isActive","type":"bool","internalType":"bool"},{"name":"totalRewardsDistributed","type":"uint256","internalType":"uint256"}]}],"stateMutability":"view"},{"type":"function","name":"governance","inputs":[],"outputs":[{"name":"","type":"address","internalType":"address"}],"stateMutability":"view"},{"type":"function","name":"pendingGovernance","inputs":[],"outputs":[{"name":"","type":"address","internalType":"address"}],"stateMutability":"view"},{"type":"function","name":"pendingRewards","inputs":[{"name":"_lbPair","type":"address","internalType":"address"},{"name":"_user","type":"address","internalType":"address"}],"outputs":[{"name":"pending","type":"uint256","internalType":"uint256"}],"stateMutability":"view"},{"type":"function","name":"poolIds","inputs":[{"name":"","type":"uint256","internalType":"uint256"}],"outputs":[{"name":"","type":"bytes32","internalType":"bytes32"}],"stateMutability":"view"},{"type":"function","name":"pools","inputs":[{"name":"","type":"bytes32","internalType":"bytes32"}],"outputs":[{"name":"lbPair","type":"address","internalType":"address"},{"name":"delegatedPair","type":"address","internalType":"address"},{"name":"isActive","type":"bool","internalType":"bool"},{"name":"totalRewardsDistributed","type":"uint256","internalType":"uint256"}],"stateMutability":"view"},{"type":"function","name":"proposeGovernance","inputs":[{"name":"_newGovernance","type":"address","internalType":"address"}],"outputs":[],"stateMutability":"nonpayable"},{"type":"function","name":"removePool","inputs":[{"name":"_lbPair","type":"address","internalType":"address"}],"outputs":[],"stateMutability":"nonpayable"},{"type":"function","name":"rewardDebt","inputs":[{"name":"","type":"bytes32","internalType":"bytes32"},{"name":"","type":"address","internalType":"address"}],"outputs":[{"name":"","type":"uint256","internalType":"uint256"}],"stateMutability":"view"},{"type":"function","name":"rewardsClaimer","inputs":[],"outputs":[{"name":"","type":"address","internalType":"address"}],"stateMutability":"view"},{"type":"function","name":"setRewardsClaimer","inputs":[{"name":"_claimer","type":"address","internalType":"address"}],"outputs":[],"stateMutability":"nonpayable"},{"type":"function","name":"updateContractAddresses","inputs":[],"outputs":[],"stateMutability":"nonpayable"},{"type":"function","name":"userRewards","inputs":[{"name":"","type":"bytes32","internalType":"bytes32"},{"name":"","type":"address","internalType":"address"}],"outputs":[{"name":"claimableAmount","type":"uint256","internalType":"uint256"},{"name":"lastClaimedEpoch","type":"uint256","internalType":"uint256"},{"name":"lastClaimedMonth","type":"uint256","internalType":"uint256"}],"stateMutability":"view"},{"type":"function","name":"wflr","inputs":[],"outputs":[{"name":"","type":"address","internalType":"contract IWNat"}],"stateMutability":"view"},{"type":"event","name":"ContractAddressesUpdated","inputs":[{"name":"ftsoRewardManager","type":"address","indexed":false,"internalType":"address"},{"name":"distributionToDelegators","type":"address","indexed":false,"internalType":"address"}],"anonymous":false},{"type":"event","name":"GovernanceTransferred","inputs":[{"name":"oldGovernance","type":"address","indexed":true,"internalType":"address"},{"name":"newGovernance","type":"address","indexed":true,"internalType":"address"}],"anonymous":false},{"type":"event","name":"PoolAdded","inputs":[{"name":"poolId","type":"bytes32","indexed":true,"internalType":"bytes32"},{"name":"lbPair","type":"address","indexed":false,"internalType":"address"},{"name":"delegatedPair","type":"address","indexed":false,"internalType":"address"}],"anonymous":false},{"type":"event","name":"PoolRemoved","inputs":[{"name":"poolId","type":"bytes32","indexed":true,"internalType":"bytes32"}],"anonymous":false},{"type":"event","name":"RewardsClaimed","inputs":[{"name":"poolId","type":"bytes32","indexed":true,"internalType":"bytes32"},{"name":"ftsoRewards","type":"uint256","indexed":false,"internalType":"uint256"},{"name":"flareDrops","type":"uint256","indexed":false,"internalType":"uint256"}],"anonymous":false},{"type":"event","name":"RewardsClaimerUpdated","inputs":[{"name":"oldClaimer","type":"address","indexed":true,"internalType":"address"},{"name":"newClaimer","type":"address","indexed":true,"internalType":"address"}],"anonymous":false},{"type":"event","name":"RewardsDistributed","inputs":[{"name":"poolId","type":"bytes32","indexed":true,"internalType":"bytes32"},{"name":"totalAmount","type":"uint256","indexed":false,"internalType":"uint256"}],"anonymous":false},{"type":"event","name":"UserClaimed","inputs":[{"name":"poolId","type":"bytes32","indexed":true,"internalType":"bytes32"},{"name":"user","type":"address","indexed":true,"internalType":"address"},{"name":"amount","type":"uint256","indexed":false,"internalType":"uint256"}],"anonymous":false},{"type":"error","name":"InvalidAddress","inputs":[]},{"type":"error","name":"NoRewardsToClaim","inputs":[]},{"type":"error","name":"NotPendingGovernance","inputs":[]},{"type":"error","name":"OnlyGovernance","inputs":[]},{"type":"error","name":"OnlyRewardsClaimer","inputs":[]},{"type":"error","name":"PoolAlreadyExists","inputs":[]},{"type":"error","name":"PoolNotFound","inputs":[]},{"type":"error","name":"TransferFailed","inputs":[]}],"bytecode":{"object":"0x60c060405234801562000010575f80fd5b506040516200250e3803806200250e833981016040819052620000339162000285565b6001600160a01b03831615806200005157506001600160a01b038216155b806200006457506001600160a01b038116155b15620000835760405163e6c4247b60e01b815260040160405180910390fd5b6001600160a01b0380841660805282811660a0525f80549183166001600160a01b0319928316811790915560028054909216179055620000c2620000cb565b505050620002ef565b60a05160405163413b07e560e11b8152602060048201526011602482015270233a39b7a932bbb0b93226b0b730b3b2b960791b60448201526001600160a01b03909116906382760fca90606401602060405180830381865afa15801562000134573d5f803e3d5ffd5b505050506040513d601f19601f820116820180604052508101906200015a9190620002cc565b600980546001600160a01b0319166001600160a01b0392831617905560a05160405163413b07e560e11b815260206004820152601860248201527f446973747269627574696f6e546f44656c656761746f7273000000000000000060448201529116906382760fca90606401602060405180830381865afa158015620001e2573d5f803e3d5ffd5b505050506040513d601f19601f82011682018060405250810190620002089190620002cc565b600a80546001600160a01b0319166001600160a01b039283169081179091556009546040805191909316815260208101919091527fb74ce24e1b912d339e2e92f0ab4cc7567a0b11bb3874d76b9d6e675ffbd6e3ec910160405180910390a1565b80516001600160a01b038116811462000280575f80fd5b919050565b5f805f6060848603121562000298575f80fd5b620002a38462000269565b9250620002b36020850162000269565b9150620002c36040850162000269565b90509250925092565b5f60208284031215620002dd575f80fd5b620002e88262000269565b9392505050565b60805160a0516121e16200032d5f395f8181610518015281816119360152611a0601525f81816101c4015281816104560152610ec201526121e15ff3fe6080604052600436106101bd575f3560e01c80639bab9bc5116100f2578063c373a08e11610092578063eb511dd411610062578063eb511dd414610683578063f0a4ed04146106a2578063f2dc1057146106b6578063f39c38a0146106e1575f80fd5b8063c373a08e14610612578063d7484db214610631578063dbd52ef414610650578063e991560f14610664575f80fd5b8063abf410e5116100cd578063abf410e514610507578063b501d6601461053a578063b5217bb414610559578063b82048b9146105dc575f80fd5b80639bab9bc514610497578063a6e82b88146104b6578063aaf5eb68146104ec575f80fd5b8063646366471161015d5780638ec08354116101385780638ec08354146103c45780639002392e146103e55780639ab83a41146104455780639b56077a14610478575f80fd5b8063646366471461037257806369883b4e1461038657806380ac8228146103a5575f80fd5b80633b7d0946116101985780633b7d0946146102e95780635aa6e675146103085780635c745d5f14610326578063616d7c9f14610353575f80fd5b806306bfa938146102335780630fd2eb721461029e578063238efcbc146102d5575f80fd5b3661022f577f00000000000000000000000000000000000000000000000000000000000000006001600160a01b031663d0e30db0346040518263ffffffff1660e01b81526004015f604051808303818588803b15801561021b575f80fd5b505af115801561022d573d5f803e3d5ffd5b005b5f80fd5b34801561023e575f80fd5b5061025261024d366004611daf565b610700565b604051610295919081516001600160a01b039081168252602080840151909116908201526040808301511515908201526060918201519181019190915260800190565b60405180910390f35b3480156102a9575f80fd5b506002546102bd906001600160a01b031681565b6040516001600160a01b039091168152602001610295565b3480156102e0575f80fd5b5061022d6107a0565b3480156102f4575f80fd5b5061022d610303366004611daf565b610824565b348015610313575f80fd5b505f546102bd906001600160a01b031681565b348015610331575f80fd5b50610345610340366004611dd1565b6108f3565b604051908152602001610295565b34801561035e575f80fd5b50600a546102bd906001600160a01b031681565b34801561037d575f80fd5b5061022d610a7a565b348015610391575f80fd5b506103456103a0366004611dfb565b610a84565b3480156103b0575f80fd5b506103456103bf366004611e12565b610aa3565b3480156103cf575f80fd5b506103d8610ae0565b6040516102959190611e49565b3480156103f0575f80fd5b5061042a6103ff366004611e95565b600560209081525f928352604080842090915290825290208054600182015460029092015490919083565b60408051938452602084019290925290820152606001610295565b348015610450575f80fd5b506102bd7f000000000000000000000000000000000000000000000000000000000000000081565b348015610483575f80fd5b50610345610492366004611eb8565b610c77565b3480156104a2575f80fd5b506103456104b1366004611daf565b610de9565b3480156104c1575f80fd5b506103456104d0366004611e95565b600760209081525f928352604080842090915290825290205481565b3480156104f7575f80fd5b50610345670de0b6b3a764000081565b348015610512575f80fd5b506102bd7f000000000000000000000000000000000000000000000000000000000000000081565b348015610545575f80fd5b5061022d610554366004611daf565b610f93565b348015610564575f80fd5b506105ab610573366004611dfb565b60036020525f90815260409020805460018201546002909201546001600160a01b039182169291821691600160a01b900460ff169084565b604080516001600160a01b039586168152949093166020850152901515918301919091526060820152608001610295565b3480156105e7575f80fd5b506103456105f6366004611f49565b600860209081525f928352604080842090915290825290205481565b34801561061d575f80fd5b5061022d61062c366004611daf565b611035565b34801561063c575f80fd5b506009546102bd906001600160a01b031681565b34801561065b575f80fd5b5061042a6110a8565b34801561066f575f80fd5b5061034561067e366004611daf565b6111ef565b34801561068e575f80fd5b5061022d61069d366004611e12565b61157e565b3480156106ad575f80fd5b5061042a611710565b3480156106c1575f80fd5b506103456106d0366004611dfb565b60066020525f908152604090205481565b3480156106ec575f80fd5b506001546102bd906001600160a01b031681565b604080516080810182525f8082526020820181905291810182905260608101919091525f826040516020016107359190611f6c565b60408051808303601f1901815282825280516020918201205f9081526003825282902060808401835280546001600160a01b039081168552600182015490811692850192909252600160a01b90910460ff161515918301919091526002015460608201529392505050565b6001546001600160a01b031633146107cb57604051632f8a273f60e21b815260040160405180910390fd5b5f8054600180546001600160a01b038082166001600160a01b031980861682178755909216909255604051919092169283917f5f56bee8cffbe9a78652a74a60705edede02af10b0bbb888ca44b79a0d42ce809190a350565b5f546001600160a01b0316331461084e576040516354348f0360e01b815260040160405180910390fd5b5f816040516020016108609190611f6c565b60408051601f1981840301815291815281516020928301205f81815260039093529120549091506001600160a01b03166108ad576040516301dbb3ff60e61b815260040160405180910390fd5b5f81815260036020526040808220600101805460ff60a01b191690555182917fcd93dc3f69ffce37f6698ff591a9d276b05fd5c17df2a1c8750daae91222df6f91a25050565b6002545f906001600160a01b0316331480159061091a57505f546001600160a01b03163314155b156109385760405163291dbeef60e11b815260040160405180910390fd5b5f8360405160200161094a9190611f6c565b60408051601f1981840301815291815281516020928301205f818152600390935291208054919250906001600160a01b0316610999576040516301dbb3ff60e61b815260040160405180910390fd5b600a5460018281015460405163596090c960e11b81526001600160a01b03918216600482015230602482015260448101889052606481019290925290911690819063b2c12192906084016020604051808303815f875af11580156109ff573d5f803e3d5ffd5b505050506040513d601f19601f82011682018060405250810190610a239190611f89565b93508315610a3557610a3583856117c4565b604080515f81526020810186905284917f6c72997f47a198511f16112dfb85726d8a3bfce99c8a028d0a84fac9d9525d42910160405180910390a25050505b92915050565b610a826118ff565b565b60048181548110610a93575f80fd5b5f91825260209091200154905081565b5f8083604051602001610ab69190611f6c565b604051602081830303815290604052805190602001209050610ad88184611ad2565b949350505050565b60605f805b600454811015610b515760035f60048381548110610b0557610b05611fa0565b905f5260205f20015481526020019081526020015f2060010160149054906101000a900460ff1615610b3f5781610b3b81611fc8565b9250505b80610b4981611fc8565b915050610ae5565b508067ffffffffffffffff811115610b6b57610b6b611fe0565b604051908082528060200260200182016040528015610b94578160200160208202803683370190505b5091505f805b600454811015610c715760035f60048381548110610bba57610bba611fa0565b905f5260205f20015481526020019081526020015f2060010160149054906101000a900460ff1615610c5f5760035f60048381548110610bfc57610bfc611fa0565b905f5260205f20015481526020019081526020015f205f015f9054906101000a90046001600160a01b0316848381518110610c3957610c39611fa0565b6001600160a01b039092166020928302919091019091015281610c5b81611fc8565b9250505b80610c6981611fc8565b915050610b9a565b50505090565b6002545f906001600160a01b03163314801590610c9e57505f546001600160a01b03163314155b15610cbc5760405163291dbeef60e11b815260040160405180910390fd5b5f84604051602001610cce9190611f6c565b60408051601f1981840301815291815281516020928301205f818152600390935291208054919250906001600160a01b0316610d1d576040516301dbb3ff60e61b815260040160405180910390fd5b600954604051635957c38560e11b81526001600160a01b0390911690819063b2af870a90610d539030908a908a90600401611ff4565b6020604051808303815f875af1158015610d6f573d5f803e3d5ffd5b505050506040513d601f19601f82011682018060405250810190610d939190611f89565b93508315610da557610da583856117c4565b604080518581525f602082015284917f6c72997f47a198511f16112dfb85726d8a3bfce99c8a028d0a84fac9d9525d42910160405180910390a25050509392505050565b5f8082604051602001610dfc9190611f6c565b60408051601f1981840301815291815281516020928301205f818152600390935291208054919250906001600160a01b0316610e4b576040516301dbb3ff60e61b815260040160405180910390fd5b610e558233611ad2565b9250825f03610e77576040516373380d9960e01b815260040160405180910390fd5b5f82815260076020908152604080832033845290915281208054859290610e9f90849061203c565b909155505060405163a9059cbb60e01b8152336004820152602481018490525f907f00000000000000000000000000000000000000000000000000000000000000006001600160a01b03169063a9059cbb906044016020604051808303815f875af1158015610f10573d5f803e3d5ffd5b505050506040513d601f19601f82011682018060405250810190610f34919061204f565b905080610f54576040516312171d8360e31b815260040160405180910390fd5b604051848152339084907f9ebcd9550869036c20686aee1cb94964a6b830d7c08864d4c9c74b3f704d0d059060200160405180910390a3505050919050565b5f546001600160a01b03163314610fbd576040516354348f0360e01b815260040160405180910390fd5b6001600160a01b038116610fe45760405163e6c4247b60e01b815260040160405180910390fd5b600280546001600160a01b038381166001600160a01b0319831681179093556040519116919082907f8dd89db999725f66b8f643c14a4615eff301626db035981a157bf4b31a04015f905f90a35050565b5f546001600160a01b0316331461105f576040516354348f0360e01b815260040160405180910390fd5b6001600160a01b0381166110865760405163e6c4247b60e01b815260040160405180910390fd5b600180546001600160a01b0319166001600160a01b0392909216919091179055565b5f805f80600a5f9054906101000a90046001600160a01b03169050806001600160a01b031663ddd1b67e6040518163ffffffff1660e01b8152600401602060405180830381865afa1580156110ff573d5f803e3d5ffd5b505050506040513d601f19601f820116820180604052508101906111239190611f89565b9350806001600160a01b031663aa7579ac6040518163ffffffff1660e01b8152600401602060405180830381865afa158015611161573d5f803e3d5ffd5b505050506040513d601f19601f820116820180604052508101906111859190611f89565b9250806001600160a01b031663d99a43e66040518163ffffffff1660e01b8152600401602060405180830381865afa1580156111c3573d5f803e3d5ffd5b505050506040513d601f19601f820116820180604052508101906111e79190611f89565b915050909192565b6002545f906001600160a01b0316331480159061121657505f546001600160a01b03163314155b156112345760405163291dbeef60e11b815260040160405180910390fd5b5f826040516020016112469190611f6c565b60408051601f1981840301815291815281516020928301205f818152600390935291208054919250906001600160a01b0316611295576040516301dbb3ff60e61b815260040160405180910390fd5b600954600a546040805163022090c760e11b815281516001600160a01b0394851694909316925f9283928692630441218e926004808401939192918290030181865afa1580156112e7573d5f803e3d5ffd5b505050506040513d601f19601f8201168201806040525081019061130b919061206e565b915091505f82821061142c575f6113228484612090565b61132d90600161203c565b90505f8167ffffffffffffffff81111561134957611349611fe0565b604051908082528060200260200182016040528015611372578160200160208202803683370190505b5090505f5b828110156113b857611389818761203c565b82828151811061139b5761139b611fa0565b6020908102919091010152806113b081611fc8565b915050611377565b50604051635957c38560e11b81526001600160a01b0388169063b2af870a906113e790309085906004016120a3565b6020604051808303815f875af1158015611403573d5f803e3d5ffd5b505050506040513d601f19601f820116820180604052508101906114279190611f89565b925050505b5f846001600160a01b031663ddd1b67e6040518163ffffffff1660e01b8152600401602060405180830381865afa158015611469573d5f803e3d5ffd5b505050506040513d601f19601f8201168201806040525081019061148d9190611f89565b60018881015460405163596090c960e11b81526001600160a01b0391821660048201523060248201526044810184905260648101929092529192505f9187169063b2c12192906084016020604051808303815f875af1925050508015611510575060408051601f3d908101601f1916820190925261150d91810190611f89565b60015b156115185790505b611522818461203c565b9950891561153457611534898b6117c4565b60408051848152602081018390528a917f6c72997f47a198511f16112dfb85726d8a3bfce99c8a028d0a84fac9d9525d42910160405180910390a25050505050505050505b919050565b5f546001600160a01b031633146115a8576040516354348f0360e01b815260040160405180910390fd5b5f826040516020016115ba9190611f6c565b60408051601f1981840301815291815281516020928301205f81815260039093529120549091506001600160a01b03161561160857604051630188c99160e11b815260040160405180910390fd5b604080516080810182526001600160a01b038086168252848116602080840191825260018486018181525f606087018181528982526003909452878120965187549087166001600160a01b03199091161787559351868301805492511515600160a01b026001600160a81b0319909316919096161717909355516002909301929092556004805491820181559091527f8a35acfbc15ff81a39ae7d344fd709f28e8600b4aa8c65c6b64bfe7fe36bd19b018290555181907f4ab8528efe13708a3c6511d645464397e238f2f3b86eaca5f16ab43c5fa7d0cd9061170390869086906001600160a01b0392831681529116602082015260400190565b60405180910390a2505050565b6009546040805163022090c760e11b815281515f93849384936001600160a01b03909216928392630441218e9260048083019391928290030181865afa15801561175c573d5f803e3d5ffd5b505050506040513d601f19601f82011682018060405250810190611780919061206e565b8094508195505050806001600160a01b031663e7c830d46040518163ffffffff1660e01b8152600401602060405180830381865afa1580156111c3573d5f803e3d5ffd5b5f8281526003602052604080822080548251630240bc6b60e21b8152835192946001600160a01b0390921693919283928592630902f1ac92600480830193928290030181865afa15801561181a573d5f803e3d5ffd5b505050506040513d601f19601f8201168201806040525081019061183e919061210e565b915091505f816001600160801b0316836001600160801b0316611861919061203c565b905080156118a9578061187c670de0b6b3a76400008861213f565b6118869190612156565b5f88815260066020526040812080549091906118a390849061203c565b90915550505b85856002015f8282546118bc919061203c565b909155505060405186815287907f603c893fe5a7abb065fd37be5d74b7570a708f31c5b02b409779f57f8ab597889060200160405180910390a250505050505050565b60405163413b07e560e11b8152602060048201526011602482015270233a39b7a932bbb0b93226b0b730b3b2b960791b60448201527f00000000000000000000000000000000000000000000000000000000000000006001600160a01b0316906382760fca90606401602060405180830381865afa158015611983573d5f803e3d5ffd5b505050506040513d601f19601f820116820180604052508101906119a79190612175565b600980546001600160a01b0319166001600160a01b0392831617905560405163413b07e560e11b815260206004820152601860248201527f446973747269627574696f6e546f44656c656761746f7273000000000000000060448201527f0000000000000000000000000000000000000000000000000000000000000000909116906382760fca90606401602060405180830381865afa158015611a4d573d5f803e3d5ffd5b505050506040513d601f19601f82011682018060405250810190611a719190612175565b600a80546001600160a01b0319166001600160a01b039283169081179091556009546040805191909316815260208101919091527fb74ce24e1b912d339e2e92f0ab4cc7567a0b11bb3874d76b9d6e675ffbd6e3ec910160405180910390a1565b5f82815260036020526040812080546001600160a01b0316611af7575f915050610a74565b8054604080516336f997b760e21b815290516001600160a01b03909216915f91839163dbe65edc916004808201926020929091908290030181865afa158015611b42573d5f803e3d5ffd5b505050506040513d601f19601f82011682018060405250810190611b669190612190565b604051627eeac760e11b81526001600160a01b03878116600483015262ffffff831660248301529192505f9184169062fdd58e90604401602060405180830381865afa158015611bb8573d5f803e3d5ffd5b505050506040513d601f19601f82011682018060405250810190611bdc9190611f89565b60405163bd85b03960e01b815262ffffff841660048201529091505f906001600160a01b0385169063bd85b03990602401602060405180830381865afa158015611c28573d5f803e3d5ffd5b505050506040513d601f19601f82011682018060405250810190611c4c9190611f89565b9050801580611c59575081155b15611c6b575f95505050505050610a74565b5f80856001600160a01b0316630902f1ac6040518163ffffffff1660e01b81526004016040805180830381865afa158015611ca8573d5f803e3d5ffd5b505050506040513d601f19601f82011682018060405250810190611ccc919061210e565b915091505f816001600160801b0316836001600160801b0316611cef919061203c565b90505f84611cfd878461213f565b611d079190612156565b5f8d81526006602052604081205491925090670de0b6b3a764000090611d2d908461213f565b611d379190612156565b90505f60075f8f81526020019081526020015f205f8e6001600160a01b03166001600160a01b031681526020019081526020015f20549050808211611d7c575f611d86565b611d868183612090565b9e9d5050505050505050505050505050565b6001600160a01b0381168114611dac575f80fd5b50565b5f60208284031215611dbf575f80fd5b8135611dca81611d98565b9392505050565b5f8060408385031215611de2575f80fd5b8235611ded81611d98565b946020939093013593505050565b5f60208284031215611e0b575f80fd5b5035919050565b5f8060408385031215611e23575f80fd5b8235611e2e81611d98565b91506020830135611e3e81611d98565b809150509250929050565b602080825282518282018190525f9190848201906040850190845b81811015611e895783516001600160a01b031683529284019291840191600101611e64565b50909695505050505050565b5f8060408385031215611ea6575f80fd5b823591506020830135611e3e81611d98565b5f805f60408486031215611eca575f80fd5b8335611ed581611d98565b9250602084013567ffffffffffffffff80821115611ef1575f80fd5b818601915086601f830112611f04575f80fd5b813581811115611f12575f80fd5b8760208260051b8501011115611f26575f80fd5b6020830194508093505050509250925092565b62ffffff81168114611dac575f80fd5b5f8060408385031215611f5a575f80fd5b823591506020830135611e3e81611f39565b60609190911b6bffffffffffffffffffffffff1916815260140190565b5f60208284031215611f99575f80fd5b5051919050565b634e487b7160e01b5f52603260045260245ffd5b634e487b7160e01b5f52601160045260245ffd5b5f60018201611fd957611fd9611fb4565b5060010190565b634e487b7160e01b5f52604160045260245ffd5b6001600160a01b038416815260406020820181905281018290525f6001600160fb1b03831115612022575f80fd5b8260051b8085606085013791909101606001949350505050565b80820180821115610a7457610a74611fb4565b5f6020828403121561205f575f80fd5b81518015158114611dca575f80fd5b5f806040838503121561207f575f80fd5b505080516020909101519092909150565b81810381811115610a7457610a74611fb4565b6001600160a01b03831681526040602080830182905283519183018290525f9184820191906060850190845b818110156120eb578451835293830193918301916001016120cf565b5090979650505050505050565b80516001600160801b0381168114611579575f80fd5b5f806040838503121561211f575f80fd5b612128836120f8565b9150612136602084016120f8565b90509250929050565b8082028115828204841417610a7457610a74611fb4565b5f8261217057634e487b7160e01b5f52601260045260245ffd5b500490565b5f60208284031215612185575f80fd5b8151611dca81611d98565b5f602082840312156121a0575f80fd5b8151611dca81611f3956fea26469706673582212205e27f867660d6c391c4a8731e9abaad6b2880fea4af9d4637821fc61784daeb364736f6c63430008140033","linkReferences":{}},"methodIdentifiers":{"PRECISION()":"aaf5eb68","accRewardPerShare(bytes32)":"f2dc1057","acceptGovernance()":"238efcbc","addPool(address,address)":"eb511dd4","binTotalSupplySnapshot(bytes32,uint24)":"b82048b9","claimAllRewards(address)":"e991560f","claimFTSORewards(address,uint256[])":"9b56077a","claimFlareDrop(address,uint256)":"5c745d5f","claimUserRewards(address)":"9bab9bc5","contractRegistry()":"abf410e5","distributionToDelegators()":"616d7c9f","ftsoRewardManager()":"d7484db2","getActivePools()":"8ec08354","getClaimableFTSOInfo()":"f0a4ed04","getClaimableFlareDropInfo()":"dbd52ef4","getPoolInfo(address)":"06bfa938","governance()":"5aa6e675","pendingGovernance()":"f39c38a0","pendingRewards(address,address)":"80ac8228","poolIds(uint256)":"69883b4e","pools(bytes32)":"b5217bb4","proposeGovernance(address)":"c373a08e","removePool(address)":"3b7d0946","rewardDebt(bytes32,address)":"a6e82b88","rewardsClaimer()":"0fd2eb72","setRewardsClaimer(address)":"b501d660","updateContractAddresses()":"64636647","userRewards(bytes32,address)":"9002392e","wflr()":"9ab83a41"},"id":18}