{"abi":[{"type":"constructor","inputs":[{"name":"_lbPair","type":"address","internalType":"address"},{"name":"_wflr","type":"address","internalType":"address"},{"name":"_ftsoProvider","type":"address","internalType":"address"},{"name":"_governance","type":"address","internalType":"address"}],"stateMutability":"nonpayable"},{"type":"function","name":"MAX_BIPS","inputs":[],"outputs":[{"name":"","type":"uint256","internalType":"uint256"}],"stateMutability":"view"},{"type":"function","name":"acceptGovernance","inputs":[],"outputs":[],"stateMutability":"nonpayable"},{"type":"function","name":"disableDelegation","inputs":[],"outputs":[],"stateMutability":"nonpayable"},{"type":"function","name":"enableDelegation","inputs":[],"outputs":[],"stateMutability":"nonpayable"},{"type":"function","name":"ftsoProvider","inputs":[],"outputs":[{"name":"","type":"address","internalType":"address"}],"stateMutability":"view"},{"type":"function","name":"getDelegationInfo","inputs":[],"outputs":[{"name":"delegates","type":"address[]","internalType":"address[]"},{"name":"bips","type":"uint256[]","internalType":"uint256[]"}],"stateMutability":"view"},{"type":"function","name":"getUndelegatedVotePower","inputs":[],"outputs":[{"name":"","type":"uint256","internalType":"uint256"}],"stateMutability":"view"},{"type":"function","name":"getVotePower","inputs":[],"outputs":[{"name":"","type":"uint256","internalType":"uint256"}],"stateMutability":"view"},{"type":"function","name":"getWFLRReserve","inputs":[],"outputs":[{"name":"wflrReserve","type":"uint128","internalType":"uint128"}],"stateMutability":"view"},{"type":"function","name":"governance","inputs":[],"outputs":[{"name":"","type":"address","internalType":"address"}],"stateMutability":"view"},{"type":"function","name":"isDelegationEnabled","inputs":[],"outputs":[{"name":"","type":"bool","internalType":"bool"}],"stateMutability":"view"},{"type":"function","name":"isWFLR","inputs":[{"name":"token","type":"address","internalType":"address"}],"outputs":[{"name":"","type":"bool","internalType":"bool"}],"stateMutability":"view"},{"type":"function","name":"lastDelegationBlock","inputs":[],"outputs":[{"name":"","type":"uint256","internalType":"uint256"}],"stateMutability":"view"},{"type":"function","name":"lbPair","inputs":[],"outputs":[{"name":"","type":"address","internalType":"contract ILBPair"}],"stateMutability":"view"},{"type":"function","name":"pendingGovernance","inputs":[],"outputs":[{"name":"","type":"address","internalType":"address"}],"stateMutability":"view"},{"type":"function","name":"proposeGovernance","inputs":[{"name":"_newGovernance","type":"address","internalType":"address"}],"outputs":[],"stateMutability":"nonpayable"},{"type":"function","name":"setFTSOProvider","inputs":[{"name":"_newProvider","type":"address","internalType":"address"}],"outputs":[],"stateMutability":"nonpayable"},{"type":"function","name":"wflr","inputs":[],"outputs":[{"name":"","type":"address","internalType":"contract IWNat"}],"stateMutability":"view"},{"type":"event","name":"DelegationDisabled","inputs":[],"anonymous":false},{"type":"event","name":"DelegationEnabled","inputs":[{"name":"ftsoProvider","type":"address","indexed":true,"internalType":"address"},{"name":"bips","type":"uint256","indexed":false,"internalType":"uint256"}],"anonymous":false},{"type":"event","name":"FTSOProviderUpdated","inputs":[{"name":"oldProvider","type":"address","indexed":true,"internalType":"address"},{"name":"newProvider","type":"address","indexed":true,"internalType":"address"}],"anonymous":false},{"type":"event","name":"GovernanceProposed","inputs":[{"name":"newGovernance","type":"address","indexed":true,"internalType":"address"}],"anonymous":false},{"type":"event","name":"GovernanceTransferred","inputs":[{"name":"oldGovernance","type":"address","indexed":true,"internalType":"address"},{"name":"newGovernance","type":"address","indexed":true,"internalType":"address"}],"anonymous":false},{"type":"error","name":"DelegationAlreadyEnabled","inputs":[]},{"type":"error","name":"DelegationNotEnabled","inputs":[]},{"type":"error","name":"InvalidAddress","inputs":[]},{"type":"error","name":"NotPendingGovernance","inputs":[]},{"type":"error","name":"OnlyGovernance","inputs":[]}],"bytecode":{"object":"0x60c060405234801561000f575f80fd5b5060405162000fc438038062000fc4833981016040819052610030916100d3565b6001600160a01b038416158061004d57506001600160a01b038316155b8061005f57506001600160a01b038116155b1561007d5760405163e6c4247b60e01b815260040160405180910390fd5b6001600160a01b0393841660805291831660a0525f80549184166001600160a01b031992831617905560018054929093169116179055610124565b80516001600160a01b03811681146100ce575f80fd5b919050565b5f805f80608085870312156100e6575f80fd5b6100ef856100b8565b93506100fd602086016100b8565b925061010b604086016100b8565b9150610119606086016100b8565b905092959194509250565b60805160a051610e31620001935f395f81816101d4015281816103a301528181610434015281816106af0152818161077d015281816108c701528181610a3501528181610a8e0152610b0301525f818161019d015281816104da0152818161055d01526105e10152610e315ff3fe608060405234801561000f575f80fd5b5060043610610111575f3560e01c8063a46391281161009e578063ce9f8be51161006e578063ce9f8be51461023f578063d8b087be14610251578063e597fe4014610259578063f39c38a01461026f578063ff0bf95614610282575f80fd5b8063a4639128146101f6578063b3249e9e1461021a578063c23fd99f14610223578063c373a08e1461022c575f80fd5b80635aa6e675116100e45780635aa6e6751461016d578063625af7671461019857806388b00fd0146101bf5780638d176ba5146101c75780639ab83a41146101cf575f80fd5b8063238efcbc146101155780632f8994f71461011f5780634fadb894146101325780635704eadd14610157575b5f80fd5b61011d610295565b005b61011d61012d366004610b4a565b61031c565b61013a6104d6565b6040516001600160801b0390911681526020015b60405180910390f35b61015f610698565b60405190815260200161014e565b600154610180906001600160a01b031681565b6040516001600160a01b03909116815260200161014e565b6101807f000000000000000000000000000000000000000000000000000000000000000081565b61011d610726565b61011d610820565b6101807f000000000000000000000000000000000000000000000000000000000000000081565b60025461020a90600160a01b900460ff1681565b604051901515815260200161014e565b61015f61271081565b61015f60035481565b61011d61023a366004610b4a565b610983565b5f54610180906001600160a01b031681565b61015f610a1e565b610261610a6c565b60405161014e929190610b6c565b600254610180906001600160a01b031681565b61020a610290366004610b4a565b610b01565b6002546001600160a01b031633146102c057604051632f8a273f60e21b815260040160405180910390fd5b60018054600280546001600160a01b03198084166001600160a01b038381169182179096559116909155604051929091169182907f5f56bee8cffbe9a78652a74a60705edede02af10b0bbb888ca44b79a0d42ce80905f90a350565b6001546001600160a01b03163314610347576040516354348f0360e01b815260040160405180910390fd5b6001600160a01b03811661036e5760405163e6c4247b60e01b815260040160405180910390fd5b5f80546001600160a01b038381166001600160a01b031983161790925560025491169060ff600160a01b9091041615610492577f00000000000000000000000000000000000000000000000000000000000000006001600160a01b031663b302f3936040518163ffffffff1660e01b81526004015f604051808303815f87803b1580156103f9575f80fd5b505af115801561040b573d5f803e3d5ffd5b505060405163026e402b60e01b81526001600160a01b03858116600483015261271060248301527f000000000000000000000000000000000000000000000000000000000000000016925063026e402b91506044015f604051808303815f87803b158015610477575f80fd5b505af1158015610489573d5f803e3d5ffd5b50504360035550505b816001600160a01b0316816001600160a01b03167f923267f181c52b01ed05c81a5fbf350ac603f55af633292024e8ac380b0d31dc60405160405180910390a35050565b5f807f00000000000000000000000000000000000000000000000000000000000000006001600160a01b03166305e8746d6040518163ffffffff1660e01b8152600401602060405180830381865afa158015610534573d5f803e3d5ffd5b505050506040513d601f19601f820116820180604052508101906105589190610bee565b90505f7f00000000000000000000000000000000000000000000000000000000000000006001600160a01b031663da10610c6040518163ffffffff1660e01b8152600401602060405180830381865afa1580156105b7573d5f803e3d5ffd5b505050506040513d601f19601f820116820180604052508101906105db9190610bee565b90505f807f00000000000000000000000000000000000000000000000000000000000000006001600160a01b0316630902f1ac6040518163ffffffff1660e01b81526004016040805180830381865afa15801561063a573d5f803e3d5ffd5b505050506040513d601f19601f8201168201806040525081019061065e9190610c24565b9150915061066b84610b01565b1561067857509392505050565b61068183610b01565b1561068e57949350505050565b5f94505050505090565b60405163d6aa0b7760e01b81523060048201525f907f00000000000000000000000000000000000000000000000000000000000000006001600160a01b03169063d6aa0b77906024015b602060405180830381865afa1580156106fd573d5f803e3d5ffd5b505050506040513d601f19601f820116820180604052508101906107219190610c55565b905090565b6001546001600160a01b03163314610751576040516354348f0360e01b815260040160405180910390fd5b600254600160a01b900460ff1661077b5760405163712d11bd60e11b815260040160405180910390fd5b7f00000000000000000000000000000000000000000000000000000000000000006001600160a01b031663b302f3936040518163ffffffff1660e01b81526004015f604051808303815f87803b1580156107d3575f80fd5b505af11580156107e5573d5f803e3d5ffd5b50506002805460ff60a01b1916905550506040517f4a8489c522370ddcc301eefe73736a4feebb27a502d4172e70a3101177a4b445905f90a1565b6001546001600160a01b0316331461084b576040516354348f0360e01b815260040160405180910390fd5b600254600160a01b900460ff161561087657604051631803d56d60e21b815260040160405180910390fd5b5f546001600160a01b031661089e5760405163e6c4247b60e01b815260040160405180910390fd5b5f5460405163026e402b60e01b81526001600160a01b03918216600482015261271060248201527f00000000000000000000000000000000000000000000000000000000000000009091169063026e402b906044015f604051808303815f87803b15801561090a575f80fd5b505af115801561091c573d5f803e3d5ffd5b50506002805460ff60a01b1916600160a01b1790555050436003555f546040516001600160a01b03909116907f56cfd7b69fbb3fc882e54cef43d16cc1bd39d19246f7580cbd265504de8ab1e89061097990612710815260200190565b60405180910390a2565b6001546001600160a01b031633146109ae576040516354348f0360e01b815260040160405180910390fd5b6001600160a01b0381166109d55760405163e6c4247b60e01b815260040160405180910390fd5b600280546001600160a01b0319166001600160a01b0383169081179091556040517f1f95fb40be3a947982072902a887b521248d1d8931a39eb38f84f4d6fd758b69905f90a250565b604051630285a20360e31b81523060048201525f907f00000000000000000000000000000000000000000000000000000000000000006001600160a01b03169063142d1018906024016106e2565b604051637de5b8ed60e01b815230600482015260609081906001600160a01b037f00000000000000000000000000000000000000000000000000000000000000001690637de5b8ed906024015f60405180830381865afa158015610ad2573d5f803e3d5ffd5b505050506040513d5f823e601f3d908101601f19168201604052610af99190810190610d3c565b915091509091565b7f00000000000000000000000000000000000000000000000000000000000000006001600160a01b0390811691161490565b6001600160a01b0381168114610b47575f80fd5b50565b5f60208284031215610b5a575f80fd5b8135610b6581610b33565b9392505050565b604080825283519082018190525f906020906060840190828701845b82811015610bad5781516001600160a01b031684529284019290840190600101610b88565b505050838103828501528451808252858301918301905f5b81811015610be157835183529284019291840191600101610bc5565b5090979650505050505050565b5f60208284031215610bfe575f80fd5b8151610b6581610b33565b80516001600160801b0381168114610c1f575f80fd5b919050565b5f8060408385031215610c35575f80fd5b610c3e83610c09565b9150610c4c60208401610c09565b90509250929050565b5f60208284031215610c65575f80fd5b5051919050565b634e487b7160e01b5f52604160045260245ffd5b604051601f8201601f1916810167ffffffffffffffff81118282101715610ca957610ca9610c6c565b604052919050565b5f67ffffffffffffffff821115610cca57610cca610c6c565b5060051b60200190565b5f82601f830112610ce3575f80fd5b81516020610cf8610cf383610cb1565b610c80565b82815260059290921b84018101918181019086841115610d16575f80fd5b8286015b84811015610d315780518352918301918301610d1a565b509695505050505050565b5f8060408385031215610d4d575f80fd5b825167ffffffffffffffff80821115610d64575f80fd5b818501915085601f830112610d77575f80fd5b81516020610d87610cf383610cb1565b82815260059290921b84018101918181019089841115610da5575f80fd5b948201945b83861015610dcc578551610dbd81610b33565b82529482019490820190610daa565b91880151919650909350505080821115610de4575f80fd5b50610df185828601610cd4565b915050925092905056fea26469706673582212200c33ad48c353ff43a990724e5f22306ea81ffa2387082ccaee30ea2aba2b8dee64736f6c63430008140033","linkReferences":{}},"methodIdentifiers":{"MAX_BIPS()":"b3249e9e","acceptGovernance()":"238efcbc","disableDelegation()":"88b00fd0","enableDelegation()":"8d176ba5","ftsoProvider()":"ce9f8be5","getDelegationInfo()":"e597fe40","getUndelegatedVotePower()":"5704eadd","getVotePower()":"d8b087be","getWFLRReserve()":"4fadb894","governance()":"5aa6e675","isDelegationEnabled()":"a4639128","isWFLR(address)":"ff0bf956","lastDelegationBlock()":"c23fd99f","lbPair()":"625af767","pendingGovernance()":"f39c38a0","proposeGovernance(address)":"c373a08e","setFTSOProvider(address)":"2f8994f7","wflr()":"9ab83a41"},"id":17}